S01800004156525472616D706F6C696E6542696E2E73726563EF
S11300000C944A000C9469000C94ED090C9469005A
S11300100C9469000C94C3090C9499090C946F090D
S11300200C9445090C9469000C94410A0C946900E1
S11300300C9469000C9469000C9469000C94690098
S11300400C9469000C9469000C944F080C9469009A
S11300500C9469000C9469000C9469000C94690078
S11300600C9469000C94170A0C9469000C946900B0
S11300700C9469000C9469000C9469000C94690058
S11300800C9469000C9469000C9469000C94690048
S11300900C94690011241FBECFEFD0E1DEBFCDBFA9
S11300A013E0A0E0B1E0E8EDFAE100E00BBF02C02C
S11300B007900D92A831B107D9F71FE0A8E1B3E08A
S11300C001C01D92A331B107E1F70E94D2060C943E
S11300D06A0D0C9400000F930FB70F9300E00817FC
S11300E009F002C0091791F1FF93EF93DF93CF93C7
S11300F0BF93AF939F938F937F936F935F934F932C
S11301003F932F931F93FF92EF92DF92CF92BF9270
S1130110AF929F928F927F926F925F924F923F9293
S11301202F921F920F92EC01E881F981ADB7BEB70F
S11301309196A083B18380E091E23196AF9131969C
S1130140A08383958917D4F30F930F930F910F9185
S1130150EB01E881F981C081D181CDBFDEBF80E0B0
S113016091E2B3963197A081AF9383958917D4F325
S11301700F901F902F903F904F905F906F907F90C3
S11301808F909F90AF90BF90CF90DF90EF90FF90B3
S11301901F912F913F914F915F916F917F918F911B
S11301A09F91AF91BF91CF91DF91EF91FF910F910B
S11301B00FBF0F910895FC010190F081E02D0480A0
S11301C0F581E02D20813181CF01F9010995089550
S11301D080911C038130C9F0809121039091220306
S11301E0A0912303B09124030097A105B10569F4FC
S11301F020E080911D0390911E03A0911F03B091F4
S113020020030097A105B10509F021E0822F08958C
S113021010921C0310921D0310921E0310921F03D0
S113022010922003109221031092220310922303B0
S1130230109224038091250390912603A091270313
S1130240B09128038093180390931903A0931A0381
S1130250B0931B030895CF93DF93282FE82FFF2734
S1130260E7FDF095EE0FFF1FDF01A852BD4FCD91C2
S1130270DC919A81EE53FD4F0190F081E02D84854D
S1130280981768F4992329F48C81882311F485E064
S11302908C83822F0E943B048A818F5F8A83DF9143
S11302A0CF910895CF93DF932091290330912A03AE
S11302B040912B0350912C032F5F3F4F4F4F5F4FC3
S11302C02093290330932A0340932B0350932C0348
S11302D0FC01EE0FFF1FEA51FD4FC081D181209731
S11302E0A9F08A819B81892B21F48C810E942B01A6
S11302F00DC0E881F9810995813019F48C810E943F
S11303002B010A80DB81C02D209799F78091290366
S113031090912A03A0912B03B0912C030197A1097A
S1130320B1098093290390932A03A0932B03B093DC
S11303302C030097A105B10581F40E94E805809182
S11303409001882351F06091880170918901809116
S11303508601909187010E946B00DF91CF910895EF
S11303601F930E94E800882311F013E101C010E0FC
S1130370E0918C01F0918D018281815082830E94F1
S1130380780580919001882341F0609188017091F3
S1130390890180E090E00E946B00812F1F910895F5
S11303A0E82FFF27E7FDF095EE0FFF1FE852FD4F02
S11303B00190F081E02DA081B1811097B1F01182FC
S11303C010824091250213968C91139714969C9158
S11303D0149712964C93129714961C921E9213978C
S11303E09C01D9012115310571F708951F93182F28
S11303F00E948D060E94E800E0918C01F0918D012D
S1130400828181508283812F0E94A604182F80321A
S113041079F40E94780580919001882381F060919D
S113042088017091890180E090E00E946B0007C010
S1130430E0918C01F0918D0182818F5F82830E9413
S11304408F06812F1F9108951F930E948D060E948D
S1130450E800882311F013E101C010E0E0918C0161
S1130460F0918D018281815082830E947805809170
S11304709001882341F0609188017091890180E0A6
S113048090E00E946B000E948F06812F1F910895B7
S113049081E080932D030895CF92DF92EF92FF9233
S11304A00F931F93CF93DF93BC01DC01ED91FC917B
S11304B01197C080D180F601C489D589209749F06D
S11304C01A96ED90FD900D911C911D9720E030E05F
S11304D015C0D60155969C938E93549757969C932A
S11304E08E935697FC0115821482138212825FC088
S11304F0EA81FB819E01309759F0EF018A859B8543
S1130500AC85BD85E816F9060A071B0788F7FE01C6
S1130510DB011396FC93EE93129715963C932E935E
S11305201497309711F0758364832115310521F0F8
S1130530F9017383628305C0D60155967C936E934B
S11305405497D6015696ED91FC915797E284F38423
S11305500485158550968D919D910D90BC91A02D8B
S1130560FB012285338544855585E816F9060A077B
S11305701B0780F482179307A407B50728F02E15EC
S11305803F054007510798F4D60157967C936E9324
S113059056970DC082179307A407B50740F42E158C
S11305A03F054007510718F4F601778B668BDF91FE
S11305B0CF911F910F91FF90EF90DF90CF9008950E
S11305C0DF92EF92FF920F931F93CF93DF938C01EF
S11305D080912D03882309F4CAC0F8018485958588
S11305E0A685B7850196A11DB11D84879587A68729
S11305F0B787208131814281538182179307A407F1
S1130600B50709F0B4C020893189428953892F5F25
S11306103F4F4F4F5F4F84819581A681B7818217E9
S11306209307A407B50720F420E030E040E050E051
S1130630D80150962D933D934D935C935397F801B5
S1130640148615861686178666897789611571055D
S113065009F48DC0FB0182859385A485B585821735
S11306609307A407B50709F082C07B01D70112964E
S1130670CD91DC911397209759F08A859B85AC85A1
S1130680BD8582179307A407B50711F47E01EECF49
S1130690DB011496ED91FC911597309711F0D383FB
S11306A0C283209711F0FD83EC83F8018489958936
S11306B08617970711F4D58BC48BD8015696ED9104
S11306C0FC915797209729F05796DC93CE93569731
S11306D009C0D80154968D919C91559757969C9337
S11306E08E935697D70113961C921E9212973097A9
S11306F0F1F1EF01FF24EA80DB80E881F9810280D7
S1130700F381E02DCE010995807EF82A8E819F81A8
S1130710A885B9850097A105B10511F12A853B8506
S11307204C855D85280F391F4A1F5B1FF8018481A2
S11307309581A681B78182179307A407B50740F472
S113074080959095A095B095280F391F4A1F5B1F7F
S11307502A873B874C875D87CE010E944C0201C0EB
S11307601E868E2D9D2DEC01209729F601C0FF24B5
S11307708F2DDF91CF911F910F91FF90EF90DF901C
S1130780089550919101252F332727FD3095D901E4
S1130790AA0FBB1FFD01EC5CFC4F8081A20FB31FAD
S11307A0AB5FBC4FED91FC911197E80FF11D608197
S11307B0482F4F5F12968C91481708F040E0C9010A
S11307C0880F991FFC01EC5CFC4F40832181215070
S11307D02183252FFC01EB5CFC4F922F27FF03C0E4
S11307E02093910107C08081215032978823A9F377
S11307F090939101862F0895E82FFF27E7FDF09548
S1130800EE0FFF1FE852FD4F0190F081E02D538160
S1130810252F332727FD3095F901EE0FFF1FDF0148
S1130820AC5CBC4F9C919150E20FF31FEB5FFC4F0B
S11308304281941710F0942F9150F901EE0FFF1F8D
S1130840DF01AC5CBC4F9C93E20FF31FEB5FFC4FEA
S11308500190F081E02DE90FF11D808311968C91B8
S113086011978F5F11968C9380919101851714F4E1
S1130870509391010895CF93DF93382FE82FFF27EA
S1130880E7FDF095EE0FFF1FEE53FD4F0190F08151
S1130890E02D2385C22FDD27C7FDD095FE01EE0F85
S11308A0FF1FDF01AC5CBC4F11969C9111978C919A
S11308B0980FEC0FFD1FEB5FFC4F8281981708F037
S11308C0981BDE01AA0FBB1FCA0FDB1FCB5FDC4FD7
S11308D0E881F981E90FF11D3083AC5CBC4F1196BE
S11308E08C9111978F5F11968C938091910182174F
S11308F014F420939101DF91CF910895CF93DF9366
S1130900C82FDD27C7FDD095CC0FDD1FFE01EE53A8
S1130910FD4F0190F081E02DA085B185109799F0ED
S113092012968C911297882371F481E012968C931D
S11309301297C852DD4FE881F981838111968C9317
S113094011978C918383DF91CF910895CF93DF9397
S1130950282FE82FFF27E7FDF095EE0FFF1FDF019B
S1130960A852BD4FCD91DC919A81EE53FD4F019079
S1130970F081E02D8485981710F084E00BC0992352
S113098011F485E08C83822F0E943B048A818F5F5F
S11309908A8380E2DF91CF9108950E948D060E94A0
S11309A0E800882311F00E940801E0918C01F09185
S11309B08D0180819181892B21F080918E010E948B
S11309C0D0010E94B0010E948F0608951F93CF9317
S11309D0DF938AE00E94A604C8EDD2E010E0E8812B
S11309E0F9818481843019F4812F0E94A60422960F
S11309F01F5F1430A1F7E0910303F091040386858F
S1130A00823029F481E08687CF010E944C02DF9175
S1130A10CF911F910895E82FFF27E7FDF095EE0F82
S1130A20FF1FDF01A852BD4F0D90BC91A02DEE53C6
S1130A30FD4F0190F081E02D938513969C931397BD
S1130A401D921C920E94570608951F930E94C10391
S1130A50182FE82FFF27E7FDF095F0938F01E0931F
S1130A608E01EE0FFF1FDF01A852BD4F8D919C91A7
S1130A7090938D0180938C01EE53FD4F8081918181
S1130A809093890180938801812F0E940B05E09146
S1130A908C01F0918D0182E08483812F0E947E0479
S1130AA081E0809390011F9108951F93182F0E9455
S1130AB08D0610933303812F0E94E6040E9448029E
S1130AC0809191018F3F81F00E94250580919001D2
S1130AD0882351F060918801709189018091860189
S1130AE0909187010E946B000E948F061F910895C8
S1130AF0CF93DF9380918E01C82FDD27C7FDD0955A
S1130B00CC0FDD1FFE01EE53FD4F0190F081E02D6F
S1130B10A085B185109779F012968C911297813047
S1130B2051F412961C921297C852DD4FE881F98154
S1130B3011968C918383E0918C01F0918D018281D7
S1130B40882319F085E0848301C01482F0938B011B
S1130B50E0938A01809188019091890190938701A3
S1130B60809386010E94C103282FE82FFF27E7FD09
S1130B70F095F0938F01E0938E01EE0FFF1FDF01DC
S1130B80A852BD4F0D90BC91A02DB0938D01A093A0
S1130B908C01EE53FD4F8081918190938901809364
S1130BA0880114968C91853019F4822F0E940B05CC
S1130BB0E0918C01F0918D0182E0848380918E011B
S1130BC00E947E0481E080939001DF91CF9108958B
S1130BD0E0918C01F0918D019091910183818917AD
S1130BE014F080E047C081E0848380918E010E94EC
S1130BF0FC0380918C0190918D0190938B018093E3
S1130C008A01809188019091890190938701809352
S1130C1086010E94C103282FE82FFF27E7FDF095E6
S1130C20F0938F01E0938E01EE0FFF1FDF01A852B6
S1130C30BD4F0D90BC91A02DB0938D01A0938C015C
S1130C40EE53FD4F808191819093890180938801B7
S1130C5014968C91853019F4822F0E940B05E09133
S1130C608C01F0918D0182E0848380918E010E9439
S1130C707E0483E0809390010895FC0182810E94A8
S1130C80A60408950E94CD0408951F93182F0E946E
S1130C909106812F0E9455051F9108950E94F60127
S1130CA08F7108950E9424028F710895FFCFCF930E
S1130CB0DF93E82FFF27E7FDF095EE0FFF1FEE53BC
S1130CC0FD4FA081B18114968D919C911597019748
S1130CD01296ED91FC911397E80FF91F16968C91DB
S1130CE01697808317968C911797829331970D905E
S1130CF0BC91A02DED01E9931196FC931197FD0190
S1130D00CD014F9612823196E817F907D9F780E89A
S1130D1088A319A2DF91CF910895F8940895789447
S1130D200895789408950895089500D000D0EDB7FB
S1130D30FEB7319620E031E0ADB7BEB712963C93D2
S1130D402E931197828313820E947D0A0F900F9035
S1130D500F900F90089500D000D0EDB7FEB73196F4
S1130D602FE031E0ADB7BEB712963C932E931197A6
S1130D70828313820E947D0A0F900F900F900F9030
S1130D80089500D000D02EE131E0EDB7FEB73283F4
S1130D902183948383830E947D0A0F900F900F9088
S1130DA00F9008950F931F9382E991E09093100F91
S1130DB080930F0F0E94280900D08DE291E0EDB7D7
S1130DC0FEB7928381830E947D0A8AE391E0EDB7A6
S1130DD0FEB7928381830E947D0A87E08093B000EE
S1130DE081E0809370000F900F900E9423098BE1A3
S1130DF097E00E945D070E941E0984E996E063E97A
S1130E0076E041EC56E02BEA36E005E916E00E9474
S1130E10D3080E94BC070E94C6070E9408080E94CB
S1130E200F080E94440880E00E94450680E090E09C
S1130E301F910F9108950F931F93182F092F00D01E
S1130E4000D0EDB7FEB731968CE491E0ADB7BEB7F4
S1130E5012969C938E931197128303830E947D0AAA
S1130E600F900F900F900F9081E0612F702F0E94D0
S1130E701008812F0E9421091F910F9108958EE57A
S1130E8091E00E948F0A0E9474070E9452060895FE
S1130E900E9435080E94440886E691E00E948F0A69
S1130EA00E9452060895809134020E944E060895CD
S1130EB0809135020E944E060895EAE7F0E0208111
S1130EC03081232B28682083ECE7F0E020813081F7
S1130ED040815081232B236C242B252B208390933A
S1130EE09A03809399030895EAE7F0E0808180648F
S1130EF080830895EAE7F0E08081806180838091B7
S1130F00780090917900E0919903F0919A03969575
S1130F1087959695879509950E9442060895E091D4
S1130F20A103F091A20381E009950E94420608956D
S1130F30E091A103F091A20382E009950E94420688
S1130F400895E091A103F091A20383E009950E9422
S1130F5042060895E091A103F091A20380E009956F
S1130F600E9442060895E091A103F091A20384E057
S1130F7009950E944206089586E08093E2008CE081
S1130F808093E30087E38093E400089590E0892F41
S1130F908295807F8093ED001092EF001092EE0016
S1130FA01092F3001092F2001092F1001092F000EF
S1130FB01092F7001092F6001092F5001092F400CF
S1130FC01092FA009F5F9F3011F708956093ED002F
S1130FD01092EE001092F0001092F100282F22954A
S1130FE0220F207E2093F20023E0969587952A9580
S1130FF0E1F78093F3001092F7001092F60010923C
S1131000F5001092F4004F7040644093EF0008958F
S113101081E090E060EA41E00E94E60708950895C7
S1131020833081F0843028F4813041F08230B9F487
S113103007C0843069F0853091F40CC080EA0BC09D
S113104080EB09C080EC8093ED007093FA0005C03A
S113105080ED01C080EE8093ED006093FA008091F2
S1131060EF0080648093EF0008958091DA0087FD9B
S1131070FCCF8091DB008F748093DB008091D800DB
S11310808D7F8093D8000895EBEDF0E08081806B34
S11310908083E8EDF0E080818260808308951F9270
S11310A00F920FB60F920BB60F9211241F932F932A
S11310B03F934F935F936F937F938F939F93AF93DC
S11310C0BF93EF93FF938091DA008F778093DA00D8
S11310D01091ED008091EC008093ED008091EE0082
S11310E085FF47C08091ED0082958F708330D1F0E9
S11310F0843028F4813041F08230A9F50CC084306A
S113110021F1853081F528C08091FA00E0919703A0
S1131110F091980327C08091FA00E0919B03F0912D
S11311209C0320C03091FA008091ED00816080938F
S1131130ED002091FA00932F80E0E0919D03F0915F
S11311409E03820F911D09950EC08091FA00E091D3
S11311509F03F091A00306C08091FA00E0919503EB
S1131160F091960309958091EF0080688093EF00D9
S113117002C08091EE001092EE001093ED00FF91FA
S1131180EF91BF91AF919F918F917F916F915F91FB
S11311904F913F912F911F910F900BBE0F900FBE57
S11311A00F901F9018958F929F92AF92BF92CF92FB
S11311B0DF92EF92FF920F931F937C016B015A0110
S11311C0490180EA91E09093100F80930F0F0E94E1
S11311D0280900D089E791E0EDB7FEB792838183B7
S11311E00E947D0AF0929803E0929703D0929C03A8
S11311F0C0929B03B0929E03A0929D039092A00381
S113120080929F031093960300939503E8EDF0E01A
S11312108081816080838FE78093DF008FEF8093EC
S1131220DE000F900F901F910F91FF90EF90DF90D1
S1131230CF90BF90AF909F908F9008958FEF81B91A
S1131240089582B9089584B58C6F84BD279A089552
S11312501092C50083E38093C40086E08093CA00A3
S113126088E18093C10008951F93182F8A3019F4E0
S11312708DE00E9434098091C00085FFFCCF10935B
S1131280C60080E090E01F9108951F920F920FB660
S11312900F920BB60F9211242F933F934F935F93AA
S11312A06F937F938F939F93AF93BF93EF93FF932A
S11312B089E090E00E945201FF91EF91BF91AF91BC
S11312C09F918F917F916F915F914F913F912F915A
S11312D00F900BBE0F900FBE0F901F9018951F928A
S11312E00F920FB60F920BB60F9211242F933F93C8
S11312F04F935F936F937F938F939F93AF93BF931A
S1131300EF93FF9388E090E00E945201FF91EF91E8
S1131310BF91AF919F918F917F916F915F914F9109
S11313203F912F910F900BBE0F900FBE0F901F9007
S113133018951F920F920FB60F920BB60F921124AD
S11313402F933F934F935F936F937F938F939F93C9
S1131350AF93BF93EF93FF9387E090E00E94520115
S1131360FF91EF91BF91AF919F918F917F916F9179
S11313705F914F913F912F910F900BBE0F900FBE35
S11313800F901F9018951F920F920FB60F920BB6E5
S11313900F9211242F933F934F935F936F937F93F7
S11313A08F939F93AF93BF93EF93FF9386E090E067
S11313B00E945201FF91EF91BF91AF919F918F9144
S11313C07F916F915F914F913F912F910F900BBE41
S11313D00F900FBE0F901F9018951F920F920FB68B
S11313E00F920BB60F9211242F933F934F935F9359
S11313F06F937F938F939F93AF93BF93EF93FF93D9
S113140085E090E00E945201FF91EF91BF91AF916E
S11314109F918F917F916F915F914F913F912F9108
S11314200F900BBE0F900FBE0F901F9018951F9238
S11314300F920FB60F920BB60F9211242F933F9376
S11314404F935F936F937F938F939F93AF93BF93C8
S1131450EF93FF9384E090E00E945201FF91EF919B
S1131460BF91AF919F918F917F916F915F914F91B8
S11314703F912F910F900BBE0F900FBE0F901F90B6
S113148018951F920F920FB60F920BB60F9211245C
S11314902F933F934F935F936F937F938F939F9378
S11314A0AF93BF93EF93FF938EEA91E00E94E00223
S11314B0803281F40E94E80580919001882351F0E4
S11314C060918801709189018091860190918701D2
S11314D00E946B00FF91EF91BF91AF919F918F910B
S11314E07F916F915F914F913F912F910F900BBE20
S11314F00F900FBE0F901F901895DF93CF93CDB729
S1131500DEB7FE0135966191719180910F0F909134
S1131510100FAF010E94C40ACF91DF9108950F9379
S11315201F93CF93DF938C01E0910F0FF091100F75
S1131530838181FF21C0C0E0D0E00DC0E0910F0F96
S1131540F091100F20853185BF01F9010995892B90
S113155011F0CFEFDFEFF80181918F01882371F74C
S1131560E0910F0FF091100F208531858AE0BF01C3
S1131570F9010995892B11F0CFEFDFEFCE01DF914F
S1131580CF911F910F9108952F923F924F925F92A6
S11315906F927F928F929F92AF92BF92CF92DF927F
S11315A0EF92FF920F931F93DF93CF93CDB7DEB7E4
S11315B02B970FB6F894DEBF0FBECDBF3C012B01B5
S11315C05A01FC0117821682838181FD03C06FEFEB
S11315D07FEFC6C19AE0892E1E010894211C311C9C
S11315E0F3012381F20123FD859123FF81912F01D2
S11315F0882309F4B2C1853239F423FD859123FF90
S113160081912F01853229F490E0B3010E94E00C0E
S1131610E7CF982FFF24EE249924FFE1FF15D0F0A3
S11316209B3269F09C3228F4903259F0933291F451
S11316300EC09D3249F0903369F441E024C052E079
S1131640F52A84E0F82A28C098E0F92A25C0E0E1C8
S1131650FE2A22C0F7FC29C0892F80538A3070F4F7
S1131660F6FE05C0989C902C1124980E15C0E89C99
S1131670E02C1124E80EF0E2FF2A0EC09E3229F479
S1131680F6FC6BC140E4F42A07C09C3619F450E818
S1131690F52A02C0983649F4F20123FD959123FFFF
S11316A091912F01992309F0B8CF892F8554833064
S11316B018F08052833038F444E050E0A40EB51E94
S11316C05FE359830FC0933631F0933779F0933544
S11316D009F056C020C0F5018081898342E050E0C2
S11316E0A40EB51E610101E010E012C0F501C08036
S11316F0D180F6FC03C06FEF7FEF02C0692D70E06C
S113170042E050E0A40EB51EC6010E94D50C8C0127
S11317105FE7F52214C0F501C080D180F6FC03C058
S11317206FEF7FEF02C0692D70E042E050E0A40E3D
S1131730B51EC6010E94CA0C8C0150E8F52AF3FEBE
S113174007C01AC080E290E0B3010E94E00CEA9462
S11317508E2D90E008171907A8F30EC0F601F7FCC8
S11317608591F7FE81916F0190E0B3010E94E00C36
S1131770E110EA94015010400115110579F7EAC00F
S1131780943611F0993669F5F7FE08C0F501208109
S113179031814281538184E090E00AC0F501808167
S11317A091819C01442737FD4095542F82E090E0BD
S11317B0A80EB91E9FE6F92257FF09C0509540951F
S11317C0309521953F4F4F4F5F4FE0E8FE2ACA0105
S11317D0B901A1012AE030E00E940C0DD82ED218E4
S11317E040C0953729F41F2D1F7E2AE030E01DC02C
S11317F01F2D197F9F3661F0903720F4983509F03A
S1131800ACC00FC0903739F0983709F0A6C004C0B7
S113181028E030E00AC0106114FD146020E130E0DB
S113182004C014FD166020E132E017FF08C0F50182
S1131830608171818281938144E050E008C0F501A8
S113184080819181BC0180E090E042E050E0A40EF0
S1131850B51EA1010E940C0DD82ED2188FE7F82EC8
S1131860F122F6FE0BC05EEFF522D91438F4F4FE33
S113187007C0F2FC05C08FEEF82202C01D2D01C086
S1131880192DF4FE0DC0FE01ED0DF11D8081803394
S113189019F499EEF92208C01F5FF2FE05C003C0D7
S11318A08F2D867809F01F5F0F2DF3FC14C0F0FE16
S11318B00FC01E1510F09D2C0BC09D2C9E0C911A70
S11318C01E2D06C080E290E0B3010E94E00C1F5F71
S11318D01E15C0F304C01E1510F4E11A01C0EE2455
S11318E004FF0FC080E390E0B3010E94E00C02FF0C
S11318F01DC001FD03C088E790E00EC088E590E0BC
S11319000BC0802F867891F001FF02C08BE201C0EA
S113191080E2F7FC8DE290E0B3010E94E00C06C087
S113192080E390E0B3010E94E00C9A94D914C0F3D0
S1131930DA94F101ED0DF11D808190E0B3010E9474
S1131940E00CDD20A9F706C080E290E0B3010E941C
S1131950E00CEA94EE20C1F743CEF301668177816F
S1131960CB012B960FB6F894DEBF0FBECDBFCF913F
S1131970DF911F910F91FF90EF90DF90CF90BF9078
S1131980AF909F908F907F906F905F904F903F901B
S11319902F900895FC010590615070400110D8F714
S11319A0809590958E0F9F1F0895FC0161507040A3
S11319B001900110D8F7809590958E0F9F1F089580
S11319C00F931F93CF93DF938C01EB018B8181FFE6
S11319D01BC082FF0DC02E813F818C819D81281701
S11319E0390764F4E881F9810193F983E88306C037
S11319F0E885F985802F0995892B31F48E819F81A3
S1131A0001969F838E8302C00FEF1FEFC801DF9101
S1131A10CF911F910F910895FA01AA27283051F10F
S1131A20203181F1E8946F936E7F6E5F7F4F8F4F0B
S1131A309F4FAF4FB1E03ED0B4E03CD0670F781F6A
S1131A40891F9A1FA11D680F791F8A1F911DA11D4F
S1131A506A0F711D811D911DA11D20D009F4689488
S1131A603F912AE0269F11243019305D3193DEF630
S1131A70CF010895462F4770405D4193B3E00FD0E6
S1131A80C9F7F6CF462F4F70405D4A3318F0495DD1
S1131A9031FD4052419302D0A9F7EACFB4E0A695B4
S1131AA09795879577956795BA95C9F700976105D6
S1131AB0710508959B01AC010A2E0694579547952C
S1131AC037952795BA95C9F7620F731F841F951F21
S10B1AD0A01D0895F894FFCF56
S1131AD849443520446174613A202563200A004949
S1131AE8443420446174613A202563200A0049443F
S1131AF83320446174613A202564200A0053544118
S1131B085254204D41494E200D00494E4954205508
S1131B185341525420646F6E65200D00746865202B
S1131B28696E74656765722069732025640073653E
S1131B386E642031200063616E2073746172746571
S1131B486420616761696E20005354415254204DEA
S1131B5841494E200D000000260200002E030A0011
S1131B6800FF00000002000000003409000000002B
S1131B7800000002000000003409000000000A0010
S1131B880000E8030000010000000000000000005D
S1131B980000000000000000000300000000010035
S1131BA8000000020400000004000000000004001B
S1131BB8000005000000000005000000050000000A
S1131BC800000600000005000000000007000000F7
S1131BD805000000000008000000050000000000E7
S1131BE8090000000500FD020000000001000000DB
S1131BF80100000002FF40036303320056060000A0
S1131C080A0001000103C6030C0600013F07000097
S1131C18000301000E080C0500015807000001012B
S1131C280100C70D0C040001530700000202010063
S1131C385409540800014807000003040100E9039B
S1131C48EA0D00017A07000004050102A40DA00CA6
S1131C580001B307000005050102EA0E7709000137
S1131C68AA070000060501027D0C0D070001A10763
S1131C78000007050102A303770A00019807000082
S1131C88080501023108770B00018F0700000905D8
S1131C98010236024402520260026E027C028A0287
S1131CA89802A602B4022602C601CB01D001D501CE
S1131CB8DF01E901F301FD01070211022E03DA0134
S1131CC8E401EE01F80102020C023D0600AE01DB5C
S1131CD800FA0216020C0701A00D010D0801A10D5E
S10B1CE801A20D02770C0600B5
S9030000FC
